{
  "contractName": "KingOfTheHill",
  "abi": [
    {
      "anonymous": false,
      "inputs": [
        {
          "indexed": false,
          "internalType": "uint256",
          "name": "comissionRateToWithdraw",
          "type": "uint256"
        }
      ],
      "name": "NewComissionRateToWithdraw",
      "type": "event"
    },
    {
      "anonymous": false,
      "inputs": [
        {
          "indexed": false,
          "internalType": "address",
          "name": "from",
          "type": "address"
        },
        {
          "indexed": false,
          "internalType": "uint256",
          "name": "value",
          "type": "uint256"
        }
      ],
      "name": "NewDeposit",
      "type": "event"
    },
    {
      "anonymous": false,
      "inputs": [
        {
          "indexed": false,
          "internalType": "uint256",
          "name": "roundTime",
          "type": "uint256"
        }
      ],
      "name": "NewRound",
      "type": "event"
    },
    {
      "anonymous": false,
      "inputs": [
        {
          "indexed": false,
          "internalType": "address",
          "name": "_address",
          "type": "address"
        },
        {
          "indexed": false,
          "internalType": "uint256",
          "name": "_prize",
          "type": "uint256"
        }
      ],
      "name": "NewWinner",
      "type": "event"
    },
    {
      "anonymous": false,
      "inputs": [
        {
          "indexed": true,
          "internalType": "address",
          "name": "previousOwner",
          "type": "address"
        },
        {
          "indexed": true,
          "internalType": "address",
          "name": "newOwner",
          "type": "address"
        }
      ],
      "name": "OwnershipTransferred",
      "type": "event"
    },
    {
      "anonymous": false,
      "inputs": [
        {
          "indexed": false,
          "internalType": "uint256",
          "name": "roundTime",
          "type": "uint256"
        }
      ],
      "name": "SetNewRoundTime",
      "type": "event"
    },
    {
      "anonymous": false,
      "inputs": [
        {
          "indexed": false,
          "internalType": "address",
          "name": "_address",
          "type": "address"
        },
        {
          "indexed": false,
          "internalType": "uint256",
          "name": "_prize",
          "type": "uint256"
        }
      ],
      "name": "WithdrawPrize",
      "type": "event"
    },
    {
      "inputs": [],
      "name": "comissionRateToWithdraw",
      "outputs": [
        {
          "internalType": "uint256",
          "name": "",
          "type": "uint256"
        }
      ],
      "stateMutability": "view",
      "type": "function",
      "constant": true
    },
    {
      "inputs": [],
      "name": "highestCallerAddress",
      "outputs": [
        {
          "internalType": "address",
          "name": "",
          "type": "address"
        }
      ],
      "stateMutability": "view",
      "type": "function",
      "constant": true
    },
    {
      "inputs": [],
      "name": "highestDeposit",
      "outputs": [
        {
          "internalType": "uint256",
          "name": "",
          "type": "uint256"
        }
      ],
      "stateMutability": "view",
      "type": "function",
      "constant": true
    },
    {
      "inputs": [],
      "name": "owner",
      "outputs": [
        {
          "internalType": "address",
          "name": "",
          "type": "address"
        }
      ],
      "stateMutability": "view",
      "type": "function",
      "constant": true
    },
    {
      "inputs": [],
      "name": "prizePool",
      "outputs": [
        {
          "internalType": "uint256",
          "name": "",
          "type": "uint256"
        }
      ],
      "stateMutability": "view",
      "type": "function",
      "constant": true
    },
    {
      "inputs": [],
      "name": "renounceOwnership",
      "outputs": [],
      "stateMutability": "nonpayable",
      "type": "function"
    },
    {
      "inputs": [],
      "name": "roundTime",
      "outputs": [
        {
          "internalType": "uint256",
          "name": "",
          "type": "uint256"
        }
      ],
      "stateMutability": "view",
      "type": "function",
      "constant": true
    },
    {
      "inputs": [],
      "name": "timeStampLastDeposit",
      "outputs": [
        {
          "internalType": "uint256",
          "name": "",
          "type": "uint256"
        }
      ],
      "stateMutability": "view",
      "type": "function",
      "constant": true
    },
    {
      "inputs": [
        {
          "internalType": "address",
          "name": "newOwner",
          "type": "address"
        }
      ],
      "name": "transferOwnership",
      "outputs": [],
      "stateMutability": "nonpayable",
      "type": "function"
    },
    {
      "inputs": [
        {
          "internalType": "address",
          "name": "",
          "type": "address"
        }
      ],
      "name": "winnerToPrize",
      "outputs": [
        {
          "internalType": "uint256",
          "name": "",
          "type": "uint256"
        }
      ],
      "stateMutability": "view",
      "type": "function",
      "constant": true
    },
    {
      "inputs": [],
      "name": "deposit",
      "outputs": [],
      "stateMutability": "payable",
      "type": "function",
      "payable": true
    },
    {
      "inputs": [],
      "name": "checkRound",
      "outputs": [],
      "stateMutability": "nonpayable",
      "type": "function"
    },
    {
      "inputs": [],
      "name": "withdrawPrize",
      "outputs": [],
      "stateMutability": "payable",
      "type": "function",
      "payable": true
    },
    {
      "inputs": [
        {
          "internalType": "uint256",
          "name": "_roundTime",
          "type": "uint256"
        }
      ],
      "name": "setRoundTime",
      "outputs": [],
      "stateMutability": "nonpayable",
      "type": "function"
    },
    {
      "inputs": [
        {
          "internalType": "uint256",
          "name": "_comissionRateToWithdraw",
          "type": "uint256"
        }
      ],
      "name": "setComissionRateToWithdraw",
      "outputs": [],
      "stateMutability": "nonpayable",
      "type": "function"
    }
  ],
  "bytecode": "0x608060405242600455607860055566038d7ea4c6800060075534801561002457600080fd5b5061004161003661004660201b60201c565b61004e60201b60201c565b610112565b600033905090565b60008060009054906101000a900473ffffffffffffffffffffffffffffffffffffffff169050816000806101000a81548173ffffffffffffffffffffffffffffffffffffffff021916908373ffffffffffffffffffffffffffffffffffffffff1602179055508173ffffffffffffffffffffffffffffffffffffffff168173ffffffffffffffffffffffffffffffffffffffff167f8be0079c531659141344cd1fd0a4f28419497f9722a3daafe3b4186f6b6457e060405160405180910390a35050565b611078806101216000396000f3fe6080604052600436106100e75760003560e01c8063833b8fc91161008a578063e6fd4f1711610059578063e6fd4f171461026b578063ee5f8c8f14610296578063f2fde38b146102c1578063fa65cb04146102ea576100e7565b8063833b8fc9146101e25780638da5cb5b1461020b578063a734e97a14610236578063d0e30db014610261576100e7565b806363142dd0116100c657806363142dd01461014c57806369bbe5c714610189578063715018a6146101a0578063719ce73e146101b7576100e7565b80621d918f146100ec578063224b98051461011757806348d37a5814610142575b600080fd5b3480156100f857600080fd5b50610101610313565b60405161010e9190610b6f565b60405180910390f35b34801561012357600080fd5b5061012c610319565b6040516101399190610bcb565b60405180910390f35b61014a61033f565b005b34801561015857600080fd5b50610173600480360381019061016e9190610c17565b6104dc565b6040516101809190610b6f565b60405180910390f35b34801561019557600080fd5b5061019e6104f4565b005b3480156101ac57600080fd5b506101b5610550565b005b3480156101c357600080fd5b506101cc610564565b6040516101d99190610b6f565b60405180910390f35b3480156101ee57600080fd5b5061020960048036038101906102049190610c70565b61056a565b005b34801561021757600080fd5b506102206105c3565b60405161022d9190610bcb565b60405180910390f35b34801561024257600080fd5b5061024b6105ec565b6040516102589190610b6f565b60405180910390f35b6102696105f2565b005b34801561027757600080fd5b506102806107ba565b60405161028d9190610b6f565b60405180910390f35b3480156102a257600080fd5b506102ab6107c0565b6040516102b89190610b6f565b60405180910390f35b3480156102cd57600080fd5b506102e860048036038101906102e39190610c17565b6107c6565b005b3480156102f657600080fd5b50610311600480360381019061030c9190610c70565b610849565b005b60035481565b600260009054906101000a900473ffffffffffffffffffffffffffffffffffffffff1681565b6000600160003373ffffffffffffffffffffffffffffffffffffffff1673ffffffffffffffffffffffffffffffffffffffff168152602001908152602001600020541161038b57600080fd5b600754341461039957600080fd5b3373ffffffffffffffffffffffffffffffffffffffff166108fc600160003373ffffffffffffffffffffffffffffffffffffffff1673ffffffffffffffffffffffffffffffffffffffff168152602001908152602001600020549081150290604051600060405180830381858888f1935050505015801561041e573d6000803e3d6000fd5b507fa73ef00cf3770008853149621e0eef4bdb15b3215395affcd01b8f60cc58ae2933600160003373ffffffffffffffffffffffffffffffffffffffff1673ffffffffffffffffffffffffffffffffffffffff1681526020019081526020016000205460405161048f929190610c9d565b60405180910390a1600160003373ffffffffffffffffffffffffffffffffffffffff1673ffffffffffffffffffffffffffffffffffffffff16815260200190815260200160002060009055565b60016020528060005260406000206000915090505481565b600554600454426105059190610cf5565b1015610546576040517f08c379a000000000000000000000000000000000000000000000000000000000815260040161053d90610d86565b60405180910390fd5b61054e6108a2565b565b610558610a0c565b6105626000610a8a565b565b60065481565b610572610a0c565b806007540361058057600080fd5b806007819055507f5d30bdd15dd442e771b8c25da551d164edb21f33b89a5dff2bdb1a5f16db92c76007546040516105b89190610b6f565b60405180910390a150565b60008060009054906101000a900473ffffffffffffffffffffffffffffffffffffffff16905090565b60075481565b600554600454426106039190610cf5565b10610643576040517f08c379a000000000000000000000000000000000000000000000000000000000815260040161063a90610df2565b60405180910390fd5b3373ffffffffffffffffffffffffffffffffffffffff16600260009054906101000a900473ffffffffffffffffffffffffffffffffffffffff1673ffffffffffffffffffffffffffffffffffffffff16036106d3576040517f08c379a00000000000000000000000000000000000000000000000000000000081526004016106ca90610e5e565b60405180910390fd5b6003543411610717576040517f08c379a000000000000000000000000000000000000000000000000000000000815260040161070e90610ef0565b60405180910390fd5b4260048190555033600260006101000a81548173ffffffffffffffffffffffffffffffffffffffff021916908373ffffffffffffffffffffffffffffffffffffffff1602179055503460038190555034600660008282546107789190610f10565b925050819055507f2cb77763bc1e8490c1a904905c4d74b4269919aca114464f4bb4d911e60de36433346040516107b0929190610c9d565b60405180910390a1565b60045481565b60055481565b6107ce610a0c565b600073ffffffffffffffffffffffffffffffffffffffff168173ffffffffffffffffffffffffffffffffffffffff160361083d576040517f08c379a000000000000000000000000000000000000000000000000000000000815260040161083490610fb6565b60405180910390fd5b61084681610a8a565b50565b610851610a0c565b806005540361085f57600080fd5b806005819055507fd607dc8b0381da4d383706bacef7adbb8fbde8b3b07b42107763c8764ac19f056005546040516108979190610b6f565b60405180910390a150565b7fe6b9e1659282e93b3a484308db69e5d1cac21051d45ee0fcb6f72399541cec86600260009054906101000a900473ffffffffffffffffffffffffffffffffffffffff166006546040516108f7929190610c9d565b60405180910390a160065460016000600260009054906101000a900473ffffffffffffffffffffffffffffffffffffffff1673ffffffffffffffffffffffffffffffffffffffff1673ffffffffffffffffffffffffffffffffffffffff16815260200190815260200160002060008282546109729190610f10565b92505081905550600060068190555042600481905550600060038190555030600260006101000a81548173ffffffffffffffffffffffffffffffffffffffff021916908373ffffffffffffffffffffffffffffffffffffffff1602179055507fa2b5357eea32aeb35142ba36b087f9fe674f34f8b57ce94d30e9f4f572195bcf600554604051610a029190610b6f565b60405180910390a1565b610a14610b4e565b73ffffffffffffffffffffffffffffffffffffffff16610a326105c3565b73ffffffffffffffffffffffffffffffffffffffff1614610a88576040517f08c379a0000000000000000000000000000000000000000000000000000000008152600401610a7f90611022565b60405180910390fd5b565b60008060009054906101000a900473ffffffffffffffffffffffffffffffffffffffff169050816000806101000a81548173ffffffffffffffffffffffffffffffffffffffff021916908373ffffffffffffffffffffffffffffffffffffffff1602179055508173ffffffffffffffffffffffffffffffffffffffff168173ffffffffffffffffffffffffffffffffffffffff167f8be0079c531659141344cd1fd0a4f28419497f9722a3daafe3b4186f6b6457e060405160405180910390a35050565b600033905090565b6000819050919050565b610b6981610b56565b82525050565b6000602082019050610b846000830184610b60565b92915050565b600073ffffffffffffffffffffffffffffffffffffffff82169050919050565b6000610bb582610b8a565b9050919050565b610bc581610baa565b82525050565b6000602082019050610be06000830184610bbc565b92915050565b600080fd5b610bf481610baa565b8114610bff57600080fd5b50565b600081359050610c1181610beb565b92915050565b600060208284031215610c2d57610c2c610be6565b5b6000610c3b84828501610c02565b91505092915050565b610c4d81610b56565b8114610c5857600080fd5b50565b600081359050610c6a81610c44565b92915050565b600060208284031215610c8657610c85610be6565b5b6000610c9484828501610c5b565b91505092915050565b6000604082019050610cb26000830185610bbc565b610cbf6020830184610b60565b9392505050565b7f4e487b7100000000000000000000000000000000000000000000000000000000600052601160045260246000fd5b6000610d0082610b56565b9150610d0b83610b56565b9250828203905081811115610d2357610d22610cc6565b5b92915050565b600082825260208201905092915050565b7f446f6e2774206e65656420746f20726566726573680000000000000000000000600082015250565b6000610d70601583610d29565b9150610d7b82610d3a565b602082019050919050565b60006020820190508181036000830152610d9f81610d63565b9050919050565b7f497427732074696d6520746f2072656672657368000000000000000000000000600082015250565b6000610ddc601483610d29565b9150610de782610da6565b602082019050919050565b60006020820190508181036000830152610e0b81610dcf565b9050919050565b7f596f752061726520746865206869676865737400000000000000000000000000600082015250565b6000610e48601383610d29565b9150610e5382610e12565b602082019050919050565b60006020820190508181036000830152610e7781610e3b565b9050919050565b7f4465706f736974206d7573742062652067726561746572207468616e2068696760008201527f68657374206465706f7369740000000000000000000000000000000000000000602082015250565b6000610eda602c83610d29565b9150610ee582610e7e565b604082019050919050565b60006020820190508181036000830152610f0981610ecd565b9050919050565b6000610f1b82610b56565b9150610f2683610b56565b9250828201905080821115610f3e57610f3d610cc6565b5b92915050565b7f4f776e61626c653a206e6577206f776e657220697320746865207a65726f206160008201527f6464726573730000000000000000000000000000000000000000000000000000602082015250565b6000610fa0602683610d29565b9150610fab82610f44565b604082019050919050565b60006020820190508181036000830152610fcf81610f93565b9050919050565b7f4f776e61626c653a2063616c6c6572206973206e6f7420746865206f776e6572600082015250565b600061100c602083610d29565b915061101782610fd6565b602082019050919050565b6000602082019050818103600083015261103b81610fff565b905091905056fea26469706673582212204b46b2877004d28b72b6f60e0441c8fb81c1bdb8bf04b917a89236f7835a0c2564736f6c63430008110033",
  "immutableReferences": {},
  "source": "// SPDX-License-Identifier: MIT\npragma solidity ^0.8.17;\n\nimport \"../node_modules/@openzeppelin/contracts/access/Ownable.sol\";\n\n\ncontract KingOfTheHill is Ownable {\n    mapping (address => uint) public winnerToPrize;\n\n    address public highestCallerAddress;\n    uint public highestDeposit;\n    uint public timeStampLastDeposit = block.timestamp;\n    uint public roundTime = 120 seconds;\n    uint public prizePool;\n    uint public comissionRateToWithdraw = 0.001 ether;\n\n    event NewDeposit(address from, uint value);\n    event NewRound(uint roundTime);\n    event NewWinner(address _address, uint _prize);\n    event WithdrawPrize(address _address, uint _prize);\n    event SetNewRoundTime (uint roundTime);\n    event NewComissionRateToWithdraw(uint comissionRateToWithdraw);\n\n    function deposit() external payable {\n        require(block.timestamp - timeStampLastDeposit < roundTime, \"It's time to refresh\");\n        require(highestCallerAddress != msg.sender, 'You are the highest');\n        require(msg.value > highestDeposit, 'Deposit must be greater than highest deposit');\n        timeStampLastDeposit = block.timestamp;\n        highestCallerAddress = msg.sender;\n        highestDeposit = msg.value;\n        prizePool += msg.value;\n\n        emit NewDeposit(msg.sender, msg.value);\n    }\n\n    function checkRound() public {\n        require(block.timestamp - timeStampLastDeposit >= roundTime, \"Don't need to refresh\");\n        refreshRound();\n    }\n\n    function refreshRound() private {\n        emit NewWinner(highestCallerAddress, prizePool);\n\n        winnerToPrize[highestCallerAddress] += prizePool;\n        prizePool = 0;\n        timeStampLastDeposit = block.timestamp;\n        highestDeposit = 0;\n        highestCallerAddress = address(this);\n\n        emit NewRound(roundTime);\n    }\n\n    function withdrawPrize() payable external {\n        require(winnerToPrize[msg.sender] > 0);\n        require(msg.value == comissionRateToWithdraw);\n\n        payable(msg.sender).transfer(winnerToPrize[msg.sender]);\n        emit WithdrawPrize(msg.sender, winnerToPrize[msg.sender]);\n        delete winnerToPrize[msg.sender];\n    }\n\n    function setRoundTime(uint _roundTime) public onlyOwner {\n        require(roundTime != _roundTime);\n        roundTime = _roundTime;\n\n        emit SetNewRoundTime(roundTime);\n    }\n\n    function setComissionRateToWithdraw(uint _comissionRateToWithdraw) public onlyOwner {\n        require(comissionRateToWithdraw != _comissionRateToWithdraw);\n        comissionRateToWithdraw = _comissionRateToWithdraw;\n\n        emit NewComissionRateToWithdraw(comissionRateToWithdraw);\n    }\n}\n",
  "sourcePath": "/Users/matvey/Desktop/projects/solidity/king_of_the_hill/contracts/contracts/KingOfTheHill.sol",
  "compiler": {
    "name": "solc",
    "version": "0.8.17+commit.8df45f5f.Emscripten.clang"
  },
  "schemaVersion": "3.4.11",
  "updatedAt": "2022-11-27T16:05:04.639Z",
  "networkType": "ethereum",
  "devdoc": {
    "kind": "dev",
    "methods": {
      "owner()": {
        "details": "Returns the address of the current owner."
      },
      "renounceOwnership()": {
        "details": "Leaves the contract without owner. It will not be possible to call `onlyOwner` functions anymore. Can only be called by the current owner. NOTE: Renouncing ownership will leave the contract without an owner, thereby removing any functionality that is only available to the owner."
      },
      "transferOwnership(address)": {
        "details": "Transfers ownership of the contract to a new account (`newOwner`). Can only be called by the current owner."
      }
    },
    "version": 1
  },
  "userdoc": {
    "kind": "user",
    "methods": {},
    "version": 1
  }
}